:020000040800F2
:10100000A80C0020D11000086D1D0008F91400087C
:1010100000000000000000000000000000000000D0
:101020000000000000000000000000006D1E00082D
:1010300000000000000000006F1D00086F1E000887
:10104000E3100008E3100008E3100008E3100008B4
:10105000E3100008E3100008E3100008E51400089E
:10106000E31000080D140008E3100008391400080C
:101070004D120008D91F0008E3100008E310000813
:10108000012000082920000800000000991F000826
:10109000AD1F0008D51F0008E3100008E31000088A
:1010A000E3100008E3100008E310000845200008E2
:1010B000E310000800000000E31000080348854624
:1010C00000F080F800480047A5390008A80C00206F
:1010D0000448804704480047FEE7FEE7FEE7FEE7D6
:1010E000FEE7FEE7951F0008BD10000803460B430E
:1010F0009B0703D009E008C9121F08C0042AFAD2CE
:1011000003E00B780370401C491C521EF9D2704753
:10111000D2B201E00270401C491EFBD2704700228F
:10112000F6E710B513460A4604461946FFF7F0FFE6
:10113000204610BD70B50446002903D000202022AF
:10114000012310E0002801D00020C043C046C04663
:101150000DE02546D5408D4205D30D469540641BD4
:101160001D46954040191546521E002DF1DC2146C2
:1011700070BD000070B5002504462E46002911D030
:10118000002C01DA01254442002901DA01264942F6
:101190002046FFF7CFFFB54200D04042002D00D0DF
:1011A000494270BD002C02DA0121C90702E0002C7F
:1011B00000DD03490846C046C046214670BD000018
:1011C000FFFFFF7F1CB509480090094801900546C4
:1011D0000126009C05E0E36807CC33430C3C9847AC
:1011E0001034AC42F7D3FFF76DFF0000E460000855
:1011F0000461000870B58C180578401C6B075B0F04
:1012000001D10378401C2A1106D10278401C03E06A
:1012100006780E70401C491C5B1EF9D12B0705D4C3
:101220000023521E0DD40B70491CFAE70378401CB2
:10123000CB1A921C03E01D780D70491C5B1C521EDA
:10124000F9D5A142D8D3002070BD0000B0B5A94C9B
:101250002068800200D4B0BD01204505094800681F
:10126000094909684908884203D9256002F0F2F962
:10127000B0BD01F01BFF054909788842EBD125601C
:10128000B0BDC0462400004088050020CD000020ED
:1012900005488188054A11804188054A11800088E7
:1012A000044908807047C046AC050020680500204E
:1012B0006C05002050050020F0B593B00027119771
:1012C00010970F970E970D970C970B970A97099702
:1012D00008970797069705970497039701214802F7
:1012E0000B46019144494A6802434A604A680240F9
:1012F0001292129858040A6802430A600968014071
:1013000012911298079703260496082002900390E2
:101310000920C40603AD2046294600F01FF90797AF
:1013200004964020009003902046294600F016F9CC
:1013300032480168324A0A400260310302688A4337
:101340000260016820220A4302600168009CA143F8
:101350000160016880220A430260310202688A4308
:10136000019B190251180160B10202688A43990277
:101370001E4651180160234D2868204328602868C4
:10138000029908432860180429680143296007204E
:1013900080051D490A688243D80510180860D807DF
:1013A0000E90119710970F972C46283C0EA92046B7
:1013B00000F0A4F80D970C960B970A97099709A9C6
:1013C000204600F0B5F80420C04329461C390A68BD
:1013D00002400A60294614390A6806231343B343BE
:1013E0000B60243D296801402960286802998843E0
:1013F000286013B0F0BDC04614100240080002403F
:10140000EFBFFFFF282401400827014010B5094C19
:101410002068800703D42068000707D410BD01208E
:101420006060FFF735FF20680007F7D5082060608F
:1014300010BDC04600000240F0B581B00125EC03AC
:10144000214801782148002911D01E490978002936
:101450000DD0290302680A430260002101641F487D
:101460000078002824D003F005FC022522E0011FAB
:101470000A6852040CD5164A1278002A08D0AA032A
:10148000144B1E68022737430826B7431F600260CB
:101490000A68920404D40968214211D029030EE09D
:1014A00029030160016CA943016404F0A9FC03E075
:1014B00003F022FD0A4805700748016821430160D6
:1014C00001B0F0BD180500201F05002004000240F7
:1014D000220500202004004010040140E804002000
:1014E0000905002080B50120C0030249086003F00F
:1014F0004BFB80BD14040140FEE700008268D20768
:1015000012D1C268094B13404A681A438B681343CF
:10151000CA681A43C26003229207036993430968A9
:10152000194301610020704701207047C73FFFFF4A
:1015300070B58268D2070CD1C268074B134074C9DA
:1015400009681A4322432A4332430A43C2600020F7
:1015500070BD012070BDC0463CC2FEFFF0B584B036
:101560000B68002B49D000250191009010E07F43CB
:101570007F433B460F2159438E435D4335430098DB
:1015800005510199039D6D1C0B681C46EC4035D03C
:101590000122AA401A40F6D00395144654434B68E2
:1015A00026465E43032767430568BD433543056010
:1015B000FE4302935D1E2346012D05D88D685D43D1
:1015C000876837402F4387600D695D43C7683740A0
:1015D0002F43C760029D022D039DD4D1170A05D069
:1015E00024244D690659002FC1D104E020244D69FF
:1015F0000659002FBBD15B43BCE700234A68521E4B
:10160000012A05D8C968594342689A430A4342608F
:10161000002004B0F0BD000080B57D21C900FFF7B7
:1016200089FD401E0349486000208860052008604D
:1016300080BDC04610E000E0B0B504463E4D2868CD
:101640000C2101403D4808290FD12968C90300D465
:101650003B48A96A0F220A40511CFFF76BFD014667
:1016600028688002000F801C484320602968090612
:10167000090F354A515CC840606029684905490F27
:10168000304A515CC840A060B0BDC04610B50028CB
:1016900001D0002010BD284CE16A03200840C0465C
:1016A00078440079400087440130242920680C21C7
:1016B0000140224808290FD12168C90300D42048DD
:1016C000A16A0F220A40511CFFF734FD0146206831
:1016D0008002000F801C4843216822685205520F87
:1016E000184B9A5C0906090F174B595CC840D0404B
:1016F00010BDE06902210140880310BD201F006871
:101700008007C1170D48084010BD20680C2101401A
:101710000A480829ECD12168C90300D40848A16A05
:101720000F220A40511CFFF705FD01462068800288
:10173000000F801C484310BD0410024000127A00C4
:1017400000093D00CA600008BA600008014908604D
:101750007047C0469C010020B0B51F22D30234C997
:101760009C433F239B029D430B782B4323430F2431
:101770002403A2431A4303239B034C688D689C43B4
:1017800014434988034A0A4022432A434264002002
:10179000B0BDC046FF1F0000B0B505680122940728
:1017A000A04205D0234B984202D0234B984217D138
:1017B00070239D434B682B43204DA84214DD204CE1
:1017C000A04206DC1B4CA04216D0204CA04213D0F5
:1017D0002EE01C4CA0420FD01B4CA0420CD027E0A6
:1017E0002B46164DA842EADCA04205D0124CA0427E
:1017F00002D0174CA0421BD103242402A343CC687F
:101800001C4304608B68C3620B888362974BC318C8
:101810000A24E341072B06D814469C40E1231C42CE
:1018200001D0097C01634169114341610020B0BDD1
:101830001C46E6E7002C014000040040FF2B01405D
:10184000FF43014000480140004401400040014086
:1018500000200040F0B584B00123FF2944DC0129B9
:101860007FD0102900D0FBE0016A10239943016268
:10187000016A3023994313695B085C010C431768C4
:10188000516809012143794C06190A24E64145684B
:101890008469072E1ED803970127B740E1263742F7
:1018A00017D00326B602B543536902939769D369EB
:1018B000BF002646704C3C402C43DD002543344697
:1018C000C0239943029B5B08DB010B4391688901AC
:1018D0001943039F456073231B029C433B02234330
:1018E0008361D268826376E001273D02A94274D009
:1018F0003D03A94200D0B3E0016AA94301625B49FC
:1019000045180A21CD41016A43681468029454685D
:10191000019414690394C669072D00D9A3E03C46DD
:10192000AC40E1252C4200D19DE0BC03A343946967
:10193000A4011C43019D446073231B029E43029B30
:101940001B023343C361D268026403221203914332
:10195000474A1032039B1B0313400B4329031943CF
:1019600039E00127F943036A0B40036213690B4016
:10197000046A032102918C431C4316685168214379
:101980003A4BC3180A24E34145688469072B1BD8E6
:1019900003963E469E40E1231E4214D0029B1B024A
:1019A0009D437B02566902969769D6699F432F43F0
:1019B00075003D430C239943029B5B08DB000B43FE
:1019C000916889001943039E456073239C43344307
:1019D0008461D2684263016241E0016AA943016205
:1019E0002449491C13691B020B400321029109027F
:1019F000056A8D431D431168039151680B022B4307
:101A00001A4941180A25E9414668C56907291DD8C0
:101A10008F40E1210F4219D0029C21038E4351696E
:101A200001919169D76900970901114F0F40374320
:101A300000994E013E43A1028B430F49091D019CB1
:101A4000A4020C401C4391688B022343466073211F
:101A50008D4303990D43C561D168C16303620023BF
:101A6000184604B0F0BD1C4664E7C04600D4FEBF73
:101A7000F0DFFFFFFFFDFFFFFCF7FFFF70B584B055
:101A8000024603680120DB0728D11368294C1C405B
:101A90004B682343CC681C430B6923438C691C436C
:101AA000146003231C035568A5438C682C435460C1
:101AB0001B0294689C434B69234393601E4B9A42DC
:101AC0000ED01E4B9A4209D10E4605461446002000
:101AD000FFF7DCFD0246002A28460BD104B070BD9A
:101AE0000E460546144601A8FFF7A6FD039A002AF4
:101AF0002846F3D031680029F0D00120C003B36933
:101B000083420DD150004A081018FFF713FB0C490F
:101B100001400007400F4018E060002004B070BD95
:101B200048088018FFF706FB80B2E060002004B090
:101B300070BDC046F369FFFF00440040003801401B
:101B4000F0FF0000064807490160074901600221D3
:101B500041607D2149018160044901607047C046B0
:101B600000300040CCCC000055550000AAAA00006F
:101B7000F0B59FB000251D951C951B951A951995DC
:101B80001895179516951595149513951295119509
:101B900010950F950E950D950C950B950A95099539
:101BA00008950795069505950124E20203926A4976
:101BB000486810434860486810401E901E9819A954
:101BC0000D740D801C95104631381B901A95634E8C
:101BD0003046FFF7E1FD3068802104910843306012
:101BE000B0685F490140B160B069082101910843C4
:101BF000B06112951395149515951695179518952E
:101C00006020119011AF304621463A46FFF722FE80
:101C10000420C1430091B0690840B061B0690399E4
:101C20000843B06113951295102130463A46FFF7EC
:101C300011FEB0694B490840B061F0690199084351
:101C4000F061139512952102019130463A46FFF753
:101C500001FEF06900990840F061F06903990843BA
:101C6000F06113951295210330463A46FFF7F2FDD5
:101C7000F0693C490840F0617068702188437060E9
:101C80000BA9CD812D200873B068049A9043B060F1
:101C9000109560030F900D950C950B953046FFF74E
:101CA0005BFD274660042C4B1968014319601968D5
:101CB00001401E911E98A004029419680143196006
:101CC000196801401E9102240A9409950895079508
:101CD000069405941E98244805AE3146FFF73EFC55
:101CE0000A94099508950795069405971E4831466C
:101CF000FFF734FC0A940995089507950694049813
:101D000005900920C70638463146FFF727FC0A949C
:101D10000995089507950694029880020590384623
:101D20003146FFF71BFC0A94099508950795069420
:101D300002984002059038463146FFF70FFC0A949E
:101D400009950895079506940198059038463146FF
:101D5000FFF704FC1FB0F0BD14100240002C01403E
:101D6000F8BFFFFFFFFBFFFF00040048704770470C
:101D7000F0B581B0384801680126B1430160374CA5
:101D8000A07CA17B01290AD1401CA074C1B2072903
:101D900003D333480673A6743046304009E0411E31
:101DA000A174080603D12E4806730621A17430469B
:101DB00088436073EFF3108072B6294DE87B0028EA
:101DC00002D1A07C00F026FA62B600F003FA7D2072
:101DD0008000244AD16808185168814202D9A6724D
:101DE000002002E0A17A484248414A21695A4C2227
:101DF000AA5A51184A08216D5218930852082F26E2
:101E0000F34FBE5D002E02D02E461F3601E02E4657
:101E10001C3636785643B6099B1B4427EB530023E8
:101E2000EB76AB77A37C5B000E4FDB195983226501
:101E30006E87002805D138690B49884207D901B05F
:101E4000F0BD01F037F8386907498842F7D8401CDF
:101E5000386101B0F0BDC0460C200040C000002039
:101E600008050020840500200F27000070477047F8
:101E7000B0B545490A68012002430A600968434D2C
:101E80002968014329602968890708D429688907D6
:101E900005D42968890702D429688907F3D52B68F6
:101EA00080210B43782293432B606B6B03436B635E
:101EB0006B6B9B0708D46B6B9B0705D46B6B9B0705
:101EC00002D46B6B9B07F3D56B6B0B4393436B6334
:101ED000696A01436962696A890708D4696A89077E
:101EE00005D4696A890702D4696A8907F3D53D2157
:101EF00009046A688A430521C90451186960E96ABE
:101F00000F229143E96201062A680A432A604106CA
:101F10002A680A4208D12A680A4205D12A680A4278
:101F200002D12A680A42F3D06968F02291436960BD
:101F3000072109026A688A436A60696802220A43C3
:101F400082436A6069680C20014008290BD06968E7
:101F50000140082907D069680140082903D0696851
:101F600001400829EED10A4C2046FFF755FB2046D8
:101F7000FFF7ECFB686B042188436863286B03213F
:101F800088432863B0BDC0460020024000100240D4
:101F9000006CDC027047000080B50120C04302499C
:101FA0000860FFF7E5FE80BD102000400220C0431E
:101FB00007490A68920703D40A68D20704D1704718
:101FC00008600A68D207FAD0401C08607047C04613
:101FD00010400140704700000220C04307490A68D2
:101FE000920703D40A68D20704D1704708600A68D0
:101FF000D207FAD0401C08607047C046102C014040
:102000000220C04307490A68920703D40A68D2072E
:1020100004D1704708600A68D207FAD0401C0860F3
:102020007047C0461004004080B505480168C907E4
:1020300004D00121C943016003F0CCFC80BDC0463F
:10204000101000407047000081B00020009022482E
:10205000026822490A405218183202600268002AB7
:1020600008D50268002A05D50268002A02D5026850
:10207000002AF3D401220092009B002B17D0009B72
:102080005B1E0093009B002B11D0009B5B1E0093F6
:10209000009B002B0BD0009B5B1E0093009B002B32
:1020A00005D0009B5B1E0093009B002BE7D10368CB
:1020B0000B4013430360014608390A68D20708D170
:1020C0000A68D20705D10A68D20702D10968C90790
:1020D000F1D001B07047C04608240140E8FFFF7FFF
:1020E00070B5F44B1868042101430820814319603E
:1020F00002249C6203210A050920C0060568954355
:1021000001221605AD190560950285621D6815430B
:10211000A5431D609A628B0404689C439304E318F2
:102120000360530283628B0304689C439303E318A8
:10213000036080238362090403688B4311045918E8
:1021400001601102816270BD70B5DB490A7DD94C16
:1021500020680C239843002A03D0082210432060F3
:1021600004E00422104320600220A0620322130531
:102170000920C00605689D4301235E05AD19056071
:102180000E7D25689543002E03D002263543256039
:1021900002E01D432560A36294040568A543DC04A6
:1021A0002C1904600C7D95030168A943002C03D011
:1021B000DC032143016004E09C0321430160802192
:1021C0008162110402688A4359045118016070BD8C
:1021D000EC0600200C4800680009182801D80020EF
:1021E00000E001208000B8490A6804239A431018CF
:1021F0000860064801784A424A415105044A116084
:10220000007840055060704788050020CD00002010
:1022100008040140F0B5411E052900D948E1092014
:10222000C006C0467944097949008F4402B95C8AE6
:102230002FE70323990302688A4301218C031219B3
:102240000260802282621A04046894430A04A2187D
:1022500002600A028262974A15680D430224A54370
:10226000156091619B0405689D438B04EB18036026
:102270004B028362904B1D7D13680C26B343002DE7
:1022800000D1FBE0082423431360FBE089490A687E
:1022900004231343082293430B6002238B6203241D
:1022A00022050568954301221605AD1905609502C2
:1022B0008562A5030668AE43950375190560802500
:1022C000856125040668AE4315047519056015027D
:1022D0008562794D2E7D0D68A543002E00D1BBE0AF
:1022E0001D430D60BBE0734A1168012319430224AA
:1022F000A1431160936203218D040668AE439D04DF
:10230000751905605D028562156804262E4308254F
:10231000AE43166094610A05046894431A05A21836
:1023200002609A028262644A157D890304688C43C4
:102330005904644A002D00D195E0DB031C4304607E
:10234000AFE003218A030468944301239A03A2188F
:102350000260802282620A04046894431A04A2186C
:1023600002601A028262534C226804251543082237
:10237000954325600225A5610A05066896431A055E
:10238000B21802609A0282624B4A177D26688E4319
:10239000D9044B4A002F6CD02E432660512381E094
:1023A000444A116804230B4308218B431360022421
:1023B000946203210B0505689D4301231E05AD1999
:1023C00005609D02856215681D43A54315609361F4
:1023D0008A04046894439A04A21802605A02826232
:1023E000354A157D890304688C435904354A002D0C
:1023F0004CD0DB031C430460612353E02D4B1A686F
:1024000001210A430224A2431A609962032295041F
:102410000668AE438D04751905604D02856295030B
:102420000668AE438D037519056080258561120429
:10243000056895430A04AA1802600A0282621E4ACD
:10244000167D1D680C22954349051C4A002E24D098
:10245000082425431D6024E015430D608A62D104E1
:102460006123174A1EE09B031C43046080238362A0
:1024700017E01E432660A362512313E004252B437B
:1024800013609462490551230C4A0BE09B031C43E3
:10249000046080238362612304E0042635431D60C9
:1024A0009C624123046814400C43046006480360A6
:1024B000F0BDC04600040048EC060020FFFFCFFF3F
:1024C000FFFFF3FFFFFFFCFF1C000140F0B589B0E8
:1024D000DF480268C16F891ADE4DE9818BB2590964
:1024E000A981DD4C2488A34200D823E1DB4C248859
:1024F000A34200D31EE1DA4B00271F8043689A1ADB
:1025000092B201268A42324600D83A46AA628268CE
:10251000C3689A1A92B28A42324600D83A46EA62B0
:10252000026943699A1A92B28A42324600D83A4600
:102530002A638269C3699A1A92B28A42324600D8E3
:102540003A4607926A63026A436A9A1A92B28A42C8
:10255000324600D83A460692AA63826AC36A9A1A39
:1025600092B28A42324600D83A460592EA63026B3A
:10257000436B9A1A92B28A42324600D83A46049283
:102580002A64826BC36B9A1A92B28A42324600D88E
:102590003A4608926A64026C436C9A1A92B28A4272
:1025A000324600D83A460292AA64826CC36C9A1AE8
:1025B00092B28A42324600D83A460192EA64026DEB
:1025C000436D9A1A92B28A42324600D83A46009235
:1025D0002A65826DC36D9A1A92B28A42324600D839
:1025E0003A4603926A65026E436E9A1A92B28A4222
:1025F000334600D83B46AB65826EC46EA21A92B2D7
:102600008A42344600D83C46EC65026F456FAA1AF0
:1026100092B28A42324600D83A46B34D2A66856F56
:10262000C06F401B80B2884200D83E46AE48466626
:10263000816AC56A006B069F7940029F7940C90094
:10264000059F7D40019F7D40AD000D4304994840AA
:102650000099484047000898079948400890D800DA
:10266000A100081851004418A0480078A04B197820
:10267000C9B201430DD100F02FFD9D4B002808D0B9
:1026800099490879401C0871C0B2652801D301201E
:102690001870A0193D43089A03994A4019780029F7
:1026A00001D00F214840FE210D40A91888423BD19E
:1026B0008D4CA26AE36A27463037E1CF216C07913F
:1026C000616C089192025B02134302021A43EB0110
:1026D0001343B2011A437B011343079801011943C5
:1026E0000898C0000843A16CE36C226D666D8D00F4
:1026F00005435900294325460020E94B1880238AC9
:102700005B1C2382012E02D17A4B01241C701143E1
:10271000AA79002A15D0022A0ED0012A1ED1022041
:10272000A871698209B0F0BD00206F498871888A5C
:10273000401C888209B0F0BD0320A871E97109B07E
:10274000F0BD302915DB6A78002A12D06A480022D1
:102750000270DA480180AA7009B0F0BD032AE9D1FD
:102760002529E7D1698AEA79D14B5A54A87109B071
:10277000F0BD4A1E2E2A06D85F480170CF480022BD
:102780000280C8B20EE0002902D05B48007809E060
:102790002978012901D10021697057490870C7497A
:1027A0000880A8700028C5D0544909780029C1D1F3
:1027B0004E4909780029BDD0E978884202D000212D
:1027C000A970E870062805D3A978491CA970C9B278
:1027D0000629AFD3294600258D70411E232900D933
:1027E0007CE0C0467944097949008F44114A2D673D
:1027F0006B3B4E55746F771D40277777777777154A
:102800005C77777777777777777777777777776288
:102810003C490120087061E0A548407C0121081A6C
:1028200037490870142059E002F06EFAA048407C45
:10283000401C34490870304800784FE001202A4994
:1028400048724D710E2049E02E490320087045E082
:10285000E805002080040020F8040020400100204A
:102860004E050020284801210170062036E0012194
:102870001D4B197259711A780D20012A2ED15970E9
:102880002CE020490220087028E01D480121017039
:1028900087484574072021E01948057084480121C4
:1028A000417408201AE08248407C154908701520C0
:1028B00014E001200C49887124200FE01149042004
:1028C00008700BE00F490520087007E078480121E7
:1028D00081740A2002E076488574092006490D704B
:1028E0000A49087009B0F0BD800400201F050020CF
:1028F0001805002016050020E80600201B05002012
:10290000CE000020130500202A05002040080020EA
:10291000F0B581B05E4E03CE081A5E4941185F4A99
:10292000083E91420ED85E4D00242C805D4B5978B4
:10293000002909D0D978002966D1997800292DD0AD
:1029400018892CE0544D8BE01E465949897C00299A
:102950000DD059490A887D21CB00904215D9524C9F
:10296000248809010091511C5B1C224611E04E494C
:102970000A88504909887D231B012F3300932F2398
:1029800001F048FF312806DA06E04A490988009339
:10299000002301F03FFF0446346161E01881491CC7
:1029A0009970414F398880B200F07AFB332803D305
:1029B0003C4B5C70394620E038880721414305CE06
:1029C000101A4018C0083880364B9978083E3329D1
:1029D000394612D3193881B2344A8918CA0F891876
:1029E000490821221F46324B99540121F9702E4982
:1029F000088001F0FFFF2C493B4608881881D878F1
:102A000000282DD003CE081A19797D22D200FA327F
:102A100090420DD2491C1F461971264A1388072679
:102A20005E433018C0081080C8B24C2804D217E0AA
:102A30001F46C8B24C2813D31E48018819318AB2E8
:102A4000144B9A183332D30FD21852082023184E41
:102A5000F2547C70018002F057F93C7101F0A6FF3E
:102A600000202880154802880E4909698C1A144BE9
:102A70001B689C4201DDD11806E0541A9C4203DD1C
:102A8000D11A018001B0F0BD018001B0F0BDC04697
:102A9000E8050020DFFCFFFF44050020760500006C
:102AA0004E050020EC040020DC0000202AF9FFFF86
:102AB000EC060020DA000020DE000020480500209F
:102AC000A801002080B265490A680B689B1A9BB276
:102AD00098420ED90B689B1A9BB2984209D90B6891
:102AE0009B1A9BB2984204D90B689B1A9BB29842DE
:102AF000EBD8704770B500283DD0032505407D21F7
:102B0000C900554A554B002D044632D01C681E683A
:102B1000361B16408E420ED21E68361B16408E4261
:102B200009D21E68361B16408E4204D21E68361B20
:102B300016408E42EBD3012D03D1441E042836D219
:102B400019E01C681E68361B16408E420ED21E68A5
:102B5000361B16408E4209D21E68361B16408E4226
:102B600004D21E68361B16408E42EBD3022D03D1D1
:102B7000841E04281BD270BD1C681D682D1B1540C7
:102B80008D420ED21D682D1B15408D4209D21D6845
:102B90002D1B15408D4204D21D682D1B15408D4202
:102BA000EBD3C41E042802D2E5E7241FE3D0186843
:102BB0001D682D1A15408D420ED21D682D1A154024
:102BC0008D4209D21D682D1A15408D4204D21D6810
:102BD0002D1A15408D42EBD318681D682D1A15402B
:102BE0008D420ED21D682D1A15408D4209D21D68E6
:102BF0002D1A15408D4204D21D682D1A15408D42A4
:102C0000EBD318681D682D1A15408D420ED21D6831
:102C10002D1A15408D4209D21D682D1A15408D427E
:102C200004D21D682D1A15408D42EBD318681D681B
:102C30002D1A15408D42B8D21D682D1A15408D42AF
:102C4000B3D21D682D1A15408D42AED21D682D1AC3
:102C500015408D42EBD3A8E7F8FF0000244801405F
:102C6000F0B57F4BC9337F4843807F490F6800250B
:102C70002A4603E052182835782D77D07A494E1924
:102C80007168CF1B1BD1B768791A21D1F168CF1BAE
:102C900027D13769791A2DD17169CF1B33D1B76923
:102CA000791A39D1F169CF1B3FD1376A791A45D1E9
:102CB000716ACF1B4BD1B76A791ADCD050E09CB255
:102CC000A74201D247803B46D219B768791ADDD0B6
:102CD0009CB2A14201D241800B465218F168CF1B31
:102CE000D7D09CB2A74201D247803B46D219376960
:102CF000791AD1D09CB2A14201D241800B46521820
:102D00007169CF1BCBD09CB2A74201D247803B4612
:102D1000D219B769791AC5D09CB2A14201D24180BB
:102D20000B465218F169CF1BBFD09CB2A74201D20B
:102D300047803B46D219376A791AB9D09CB2A14272
:102D400001D241800B465218716ACF1BB3D09CB29E
:102D5000A74201D247803B46D219B76A791A8AD076
:102D60009CB2A14286D241800B4683E751093F4D78
:102D7000A9613F4C2178012925D1591E89B2022928
:102D80000AD80F21C9018A4206D20021A971394E01
:102D900031700E2636490EE0191F89B2042912D867
:102DA0001921C9018A420ED2324901260E703049DA
:102DB0000E70A91D0726304F3E7001260E7020218F
:102DC00001702E490E701F46C93F2D49097801290F
:102DD0000DD1BDB2224EB54209D2264D2F262E70FE
:102DE0000125274E357002260670244E3570257851
:102DF0000D4300D0F0BD591E89B202290AD80F2117
:102E0000C9018A4206D20021184A9171194A1170EB
:102E10000E210EE0191F89B20429144B13D8192171
:102E2000C9018A420FD2134901220A7022709C1DE7
:102E30000721114A11700121217020210F4A01231D
:102E400013700170F0BDB9B2054A9142D2D209495E
:102E50002F220A7001210A4A11700221EEE7C046B2
:102E6000574D00003C010020E8050020EC04002044
:102E700021050020A4010020E904002020050020F5
:102E8000220500200748084981600849C16041685F
:102E9000074A0A40D11C4160016801220A430260CE
:102EA0007047C0460800024040240140AC050020A5
:102EB0000000FFFF0120400559490A6802430A60EB
:102EC0007047C046B0B582B04C4801680124214328
:102ED0000160016810220A430260210202680A436D
:102EE0000260016804220A430260016840220A432A
:102EF0000260A10202680A430260210302680A43D9
:102F0000026064210162014620390A6822430A6096
:102F1000E503416A294341620C380168214301609D
:102F20003748016A21430162016821430160354845
:102F300001460C390A6822430A6081682143816096
:102F40000168214301600168A14301602E480168C6
:102F500021430160416921434161A0070168214388
:102F600001604169214341612848016821430160B2
:102F7000416921434161C1682143C160FEF79CF969
:102F8000FFF780FFFFF760F80020019051480168CB
:102F9000214301601E4800681E49FEF7CBF8062158
:102FA000414301910198002817D00198401E0190DB
:102FB0000198002811D00198401E01900198002826
:102FC0000BD00198401E01900198002805D001986F
:102FD000401E019001980028E7D1FF2000060E490D
:102FE0000A688243E007101808600C4880210160DD
:102FF0000B4801682943016002B0B0BD202C01409C
:10300000000400400C200040004801400010004037
:103010009C010020400D030004E400E000E100E01A
:103020000004014070B5194B1868042101430820C1
:103030008143196002249C6103210A050920C0060E
:103040000568954301221605AD1905609502856254
:103050001D681543A5431D609A618B0404689C4359
:103060009304E3180360530283628B0304689C4358
:103070009303E318036080238361090403688B438F
:103080001104591801601102816270BD00040048EA
:103090000248016801220A4302607047142C014073
:1030A000401AC1174840401A70470000074800689E
:1030B000C00007494018012189038140054A126870
:1030C0000A400E30C240D0B27047C046A001002076
:1030D00020FFF7FF1C000140024801681020084053
:1030E0007047C04610040048F0B5002934D00122D2
:1030F0000A40012933D100210D46002A2AD0425C22
:103100006A405100072052B2002A00D5C1E04A00AF
:1031100049B2002900D5C2E0510052B2002A00D5C0
:10312000C3E04A0049B2002900D5C4E0510052B2C0
:10313000002A00D5C5E04A0049B2002900D5C6E002
:10314000510052B2002A00D5C7E04D0049B2002913
:1031500000D54540E8B2F0BD0025E8B2F0BDFE2341
:103160000B4000210D4602E0891C8B42C5D0465C15
:103170006E407500072476B2002E40D46E006DB20A
:10318000002D41D4750076B2002E42D46E006DB28F
:10319000002D43D4750076B2002E44D46E006DB27B
:1031A000002D45D4770075B2002D46D47D007EB247
:1031B000002E00D56540461876786E40750076B2D0
:1031C000002E40D46E006DB2002D41D4750076B251
:1031D000002E42D46E006DB2002D43D4750076B23D
:1031E000002E44D46E006DB2002D45D4770075B228
:1031F000002D46D47D007EB2002EB5D547E0654057
:103200006E006DB2002DBDD56640750076B2002E01
:10321000BCD565406E006DB2002DBBD56640750013
:1032200076B2002EBAD565406E006DB2002DB9D5CC
:103230006640770075B2002DB8D567407D007EB23C
:10324000002EB7D4B7E765406E006DB2002DBDD536
:103250006640750076B2002EBCD565406E006DB23A
:10326000002DBBD56640750076B2002EBAD56540FC
:103270006E006DB2002DB9D56640770075B2002D95
:10328000B8D567407D007EB2002E00D46CE7654063
:103290006AE741404A0049B2002900D43CE7424075
:1032A000510052B2002A00D43BE741404A0049B2E3
:1032B000002900D43AE74240510052B2002A00D41B
:1032C00039E741404A0049B2002900D438E742407A
:1032D000510052B2002A00D437E741404D0049B2B4
:1032E000002900D535E735E710B582B047490B68AE
:1032F0000120420713604B6853608B689360CB6872
:10330000D3600B6913614B6953618B699361CB691E
:10331000D3610B6A13624B6A53628B6A9362CB6A06
:10332000D3620B6B13634B6B53638B6B9363CB6BEE
:10333000D3630B6C13644B6C53648B6C9364CB6CD6
:10334000D3640B6D13654B6D53658B6D9365CB6DBE
:10335000D3650B6E13664B6E53668B6E9366CB6EA6
:10336000D3660B6F13674B6F53678B6F9367C96F90
:10337000D16727490B68274A13604B6853608B68F5
:103380009360CB68D3600B6913614B6953618B69A0
:103390009361CB69D3610B6A13624B6A53628B6A88
:1033A0009362CB6AD3620B6B13634B6B53638B6B70
:1033B0009363C96BD16318490A6802430A600968BC
:1033C000014001910198154801680324A14301605F
:1033D0000168214301607D20C10011480068FDF7AC
:1033E000A9FE401E010E00D0FEE793490D4A506031
:1033F0000D4803680B40A107591801600020906038
:103400000720106062B602B010BDC0460010000870
:1034100080100008800000201810024000000140C9
:103420009C01002010E000E020ED00E0F0B593B03A
:10343000FEF71EFD7C4B586801260196304358600C
:10344000586830400C900C98300799680143996097
:10345000996801400C910C987448016810220792F9
:1034600011430160750418682843186018682840E3
:103470000C900C98B10408911868084318601868FB
:1034800008400C900C980920C1060491F003886252
:1034900018683043186018681F4630400C900C982C
:1034A000FF200B900004624A11688143B0050818A0
:1034B0001060B0025F49086010685F4B1840B407A5
:1034C00000191060F0020A900860FEF751FBB8681E
:1034D0003043B860B86830400C900C9817200390C7
:1034E0000994A0625548E0620024119410940F944E
:1034F0000E940D940C94386805952843386038680C
:103500002840129003270D970297022006900C90F6
:1035100012980CAE049D28463146FEF71FF8109411
:103520000D9720200C9028463146FEF717F84049A9
:1035300048680B9A904348600D467D204001014643
:1035400060313C4B1960019E3102374FBA680A4323
:10355000BA60BA680A400C920C993949039A8A6297
:10356000C862A868344A1040A860F00418600A686D
:10357000802002430A60B968079D2943B960B96891
:1035800029400C910C990B990902294B9A688A439E
:1035900002998903511899602649059A0A602949B8
:1035A0002F220A6032234B607968089B19437960A7
:1035B000796819400C910C9923498A621F4ACA62A2
:1035C0000A6882430A60119410940F940E940D942B
:1035D0000C94B86806990843B860B868084012901F
:1035E000129838681843386038681840129012985A
:1035F000119610940F940E940D910C9513480CA9EC
:10360000FDF7ACFF0A4A10680B49084009994018B9
:1036100010600A98074908600D4804603F21416026
:1036200002F03AF913B0F0BD14100240002002403D
:1036300008E400E000E100E0FFFFFF00FFFF000002
:1036400000200040281000400048014000040048CD
:1036500028040040B0B5C14C207B002809D00025CB
:10366000FFF724FD617B88421ED06D1C207B8542C4
:10367000F6D3EFF3108072B601F0EEF84C20BA49A1
:103680000A5A4A23CA52094A13680B520020106092
:10369000074A90614423C95A491C1162506010685E
:1036A00001210143116062B6B0BDC0462400004054
:1036B0000C200040F0B583B0A84DE96CA84CC022A6
:1036C000204601F0ADFA6078022808D80020A5490C
:1036D000A160E0600121E180A02161712074E07DA2
:1036E0002A281AD8011FC9B2052916D9032819D9C1
:1036F0000A38C1B2202901D89B490877207E0146AB
:1037000008399A4B9A4A882916D89A494143090C94
:103710009948FDF70FFD688612E0934910220A7759
:103720000328E5D8C000904908770A30E0750A38C8
:10373000C1B22029E0D9E1E71846F93028861046C1
:103740008E4918390860A0790A26421E0021322AC3
:1037500001D3084600E07043A885A27E28277A435B
:103760001432AA82627E1346323B652B00D30A468E
:10377000811829854B2189000291401864306885A1
:10378000022002F07FF8607800283AD0A07F0B2852
:1037900000D9052002F076F827200021019121545C
:1037A0002320205C68712220205C75494018E88342
:1037B0002520205CFA3028842020205C40007149BC
:1037C000401868832120205C400068494018A88385
:1037D000E05D1A381521C943884201D80520E0551B
:1037E0002921625C0B3AF043824200D866542A22B7
:1037F000A15C0B460A3BDBB2F62B019F03D8A65413
:1038000017E0AE8A7FE00922D2434A433D3A2A714B
:10381000D1B22A8D52182A85AA8D5218AA856A8F8C
:1038200052186A876A8D52186A85544B1A680A437F
:103830001A602B21625C8D3A4723DB439A4201D800
:10384000FF2262542C21615C491E622902D846493C
:1038500001228A71A17A4C4A637A5B00E67A76008B
:1038600053609160D6602D21625C0B3A824201D890
:10387000052060542E20225C092A0FD8042A13D870
:10388000394801461A31C0467A44127952009744A9
:103890000602090B5D000121417602E0324887767D
:1038A00047763A490120087060792F49092804D8E1
:1038B00009224A772870687042E04F770A21FDF7A5
:1038C00039FC2978884233D36978884234D3A9787F
:1038D000884235D3AE8A0298864200D2AF71E17E2B
:1038E0002020FDF727FC07462A487043C00C3946C4
:1038F000FDF720FC2887B00827494143480C39468A
:10390000FDF718FCE88602990846C83000907D2033
:10391000C700224A30463B4600F07CFFA884A07CCA
:10392000002801D11248471C1D48C76003B0F0BDF4
:10393000287069788842CAD26870A9788842C9D24A
:10394000A870AE8A02988642C8D3C8E70F490F70A4
:103950000F4901220A7019300146A3E7C000002078
:10396000EC0600200A64006408050020D60600006A
:10397000CF070000CCAA100070330C00442C01408B
:103980005E050000EE0200004C01002081040020D2
:1039900080040020ABAA00007B140000B80B0000DC
:1039A0008405002000B593B0FFF79EFC7F20450101
:1039B0002868E949884211D16868E84988420DD1F0
:1039C000287B1F2807D02B2803D0352806D1E448B0
:1039D00002E0E44800E0E448E449C864FFF726FD5B
:1039E000FFF770FAFFF766FEE14FF97802200B90BF
:1039F00041403879C0B21422029250400843411E1F
:103A000088417978C9B2012203291092114600D366
:103A10000021084301280BD1029838710220F87068
:103A200003207870D148C26CC021384601F078F983
:103A3000CE4A508E1086787C401E411E884190737D
:103A4000387D002801D10020F87426200490385CCD
:103A5000C849002811D00120788290710020B875E3
:103A6000B8820846BE305087908D32309085D08D18
:103A70003230D085108D3230108501F041F8BE4CC7
:103A80000026A687FEF75EF8BC48BD49016001F03C
:103A9000F1F82078002801D0012060711F35B94865
:103AA00001682940016021670068010F01D11921D7
:103AB000CE4320216654000C606701F0C5FEFF2054
:103AC0000A90683011907D2081000C91C1000F9107
:103AD00000011290A54E2DE00220FEF79BFB387BE3
:103AE000318E48430D4609911299FDF723FB0A21B7
:103AF0000E9148432D303E46A34F3860307B6843DB
:103B0000129F3946FDF716FB0E9948432D309E490A
:103B100048603546307B099948433946FDF70AFB32
:103B20000E994843914E2D30974988605E200D993B
:103B300021522F46B87C002805D0032093490969FB
:103B4000052905D205E0042090490969052900D31B
:103B50000B98707430748D4AD08B918B0818118C2F
:103B60004018518C4018918C4018D18C4018001D81
:103B700040085061814882490160787D012809D15F
:103B8000306D718E00914B086021C82200F042FE1A
:103B90003086787D022815D17C4840680146653919
:103BA000942902D8052141430BE0411E632902D22A
:103BB00011998D3105E0F921C943FA3888427449D9
:103BC00000D831864620205A7249884209D3E17DC7
:103BD000002901D000F086FC6F49884201D300F033
:103BE0009EFCE08D6D4988420AD30020E0852D209F
:103BF000C100208E0004FDF7BDFAA16F4018A06738
:103C00006248056901210023642D0A4600D81A463E
:103C1000E08E80B2C82800D31946434243410F9E2C
:103C2000B542109E00D81E46002E01D10A4001D098
:103C30000021A174F97C00294C4E03D09F2801D8A3
:103C40000021A174217A002906D0119929318842D6
:103C500008D20020A07405E0952801D8642000E077
:103C60000A20F071494F786903210E91FDF782FA1D
:103C700078600B2D4A4D31D30146207B00282DD092
:103C8000424FB869FFF70CFA7968129A914221D233
:103C90004A0890421ED900203C4A1061E279521C29
:103CA000E271326D0F9B9A4200D90120304BE28FB6
:103CB00092B22F2A109A00D8BAE29B7C002B00D037
:103CC000BBE2012A01D10020E0740120B072308DE6
:103CD000400860862D48816100202073326D237C6E
:103CE0002846083801682F4D2940002B10D0792A2A
:103CF0000ED301602A4A10682A4908402A49081848
:103D000024381060101F016840200843BF210BE0D9
:103D1000254A511824390160214A10682149084078
:103D20001060101F00680A998843114F111F086026
:103D3000A07B00283AD07A20235A5820215A2120EB
:103D4000205C5E22A55A228E009500F02DFC2546AF
:103D50000E350A2033E0C046DAE32559D963B84E60
:103D600000F8000800F80108007C0008C0000020EE
:103D7000EC0600202A030000080500200030004067
:103D8000AAAA000000580140342C014084050020FC
:103D9000E204000011270000419C0000214E0000B9
:103DA00010E400E0FFFFFF00240000402220205C20
:103DB000002808D000F0E8FB25462235312001F02C
:103DC000E3F800202870607B012800D080E0FDF738
:103DD0005FFAC64908884989091A6022A25A121A4C
:103DE00050205043FDF7C6F91E3062216052FD4A53
:103DF0001168FD4B1940091D11602121605458279D
:103E0000E05B072545436426A05BF8494843F84931
:103E1000FDF790F9F749C98C48433146FDF78AF917
:103E20004019C508E553627C5300F34EF05A48210F
:103E3000615AF152521CD3B20026312B334600D8BE
:103E400013466374ED4FBA68101A4018B8603221F7
:103E5000FDF770F9208780B23860E4494843E849AB
:103E6000FDF768F90104E74F00D530462086A8B277
:103E700024213A46795C02290BD00129DD4E1746F0
:103E800011D1617A328C4A43824207D9A08D401CFD
:103E900008E01746117A8842D64EF7D3E07800281A
:103EA00001D10020A085207DD7494843D74940183B
:103EB000A18D88420ADA0025E5870120E070FEF72F
:103EC0000FF900F0C9FCA587E574E5750020607363
:103ED00000226275207D00283BD0E08F312870D30E
:103EE000E17D00296DD0882800D901E1A078002863
:103EF0000ED0C74A106801218843106000F0ACFC66
:103F00000025C448056045608560FEF71DF9A57071
:103F10005227E15B50200E90255A4E20235AB27B47
:103F2000002A0D97099000D10BE24A1E11B2002918
:103F3000119900D411466A1E15B2002D119800D4B3
:103F400010465B1E1AB2002A119A00D510E21A46DA
:103F50000EE2AA484169B048FDF70CF9E17C414303
:103F60005E20215288B2AD494843C00C66216052A0
:103F7000B1790029129907D0738F328FF18EB58FE6
:103F8000009500F047FC0146B1862B203A5C2120C9
:103F9000205C904209D9B38F0121009111460A3962
:103FA0000A325B0800F036FCB0869448006963284A
:103FB00026D8316D0C98814222D90C2032292BD37E
:103FC0002BE00125A570387F02280D9200D183E5F2
:103FD000012800D036E12920385CC8274743368EB7
:103FE000304678431299FDF7A5F8301A5C26A053A5
:103FF000A78480B2632800D93DE2FFF713F842E2BC
:104000007E4840680C210091642103230C9A00F043
:1040100001FC316D322900D2022030732F20385C30
:10402000002809D04220205A1721009164210D2335
:10403000129A00F0EFFBE0777948006879498842EE
:1040400000D277E5E07C012800D073E5A07C401C1D
:10405000A07400F001FC374601200D90B072E08F93
:104060002F2803D8704838650020E0740025634885
:1040700005616B4E30684C2160523560396D0E9A87
:104080004A4380B21018C1088008227F4243920937
:10409000891A4423E1523865628788B25749096911
:1040A000052915D231685A490862524A907C917BA1
:1040B0000129544F00D0CDE0401C9074C1B20729B3
:1040C0000D9E03D326734B48867430463040CCE0B7
:1040D00031688142E7D231688142E4D2316881425D
:1040E000E1D231688142F3D3DDE7C046B8F7FF1F64
:1040F0000D920125A57052200E90205A5021089152
:10410000625A4E27E15BB37B002B039500D19CE103
:10411000431E18B20028119800D41846531E1AB234
:10412000002A119A00D41A464B1E19B2002911997F
:1041300000D419460E9BE052089D6253E153402281
:10414000B05A07971746059209B24900374A515E9F
:104150004118708E48431299FDF70CF82D220692F3
:104160002849895C48430A210991FDF703F880B288
:1041700001F076FBF05B615F49002C4A515E41180B
:10418000708E4843129D2946FCF7F4FF069FF349C1
:10419000C95D48430999FCF7EDFF80B201F066FB69
:1041A0000598305A0E99615E4900F54A515E4118F2
:1041B000708E48432946FCF7DDFFFA490D46C95D7C
:1041C00048430999FCF7D6FF80B201F055FBE08F18
:1041D000C82800D889E00D98079FE0530898F08719
:1041E00085E0C04608240140E8FFFF7FE40C0000A2
:1041F000FF0F0000C00000204208002084050020BE
:10420000690A0000EC06002054D9FFFF10270000C7
:104210000C200040342C0140C0270900CDCC000008
:1042200024000040C9AF000088130000AC0100204A
:1042300002469B7C002B00D143E50246012A00D1B7
:1042400041E542E53D46CA48026042608260FDF7B2
:1042500047FF6BE4411E917408060D9E03D126733F
:104260000621BD48817430468843BB494873EFF34B
:10427000108072B6E07B002803D1B748807CFDF740
:10428000C9FF62B6FDF7A6FFBB4AD0680C9940187B
:104290005168814201D9B0488672E576A577A57547
:1042A0001069411C1161AC4EB07C40008218306D29
:1042B0005083049ABA5C531E9A417B7F002B109B5B
:1042C00000D11346012B07D1142900D232E41299F0
:1042D000491C884205D32DE4A749C968884200D308
:1042E00028E4B572FEF7E6FD24E4F08F079FFEF7A1
:1042F000E9FBE05B00282F4600D01BE4039DE5743A
:104300000D9B237597483065B5729B49886148605D
:10431000964A1060E37302980861787F002801D004
:10432000F08D6086F07AB17B012900D0AFE0401CAF
:10433000B074C1B2072902D32573B574284628404A
:10434000AEE04E1C31B20022119FB942114600DC92
:1043500031466E1C35B2119FBD42104600DC30461E
:104360005B1C1EB2119FBE4200DC1A467A4E0D9FA6
:10437000E1530E996052099822524027F05B11B226
:1043800049007F4A515E4118708E4843129E314663
:10439000FCF7F0FE2D2209928249895C48430A25E8
:1043A00029460895FCF7E6FE80B201F059FA6A4802
:1043B000C05B0E99615E4900714A515E41186648C2
:1043C000408E48433146FCF7D5FE099E7549895D0C
:1043D00048432946FCF7CEFE80B201F047FA5E481A
:1043E000C05B704F0D99615E4900654A515E41188E
:1043F0005948408E48431299FCF7BCFEB95D4843CA
:104400000899FCF7B7FE80B201F036FAFD7E5448F9
:104410002946FCF78FFE06465A482946FCF78AFED5
:104420000346E08F00964C4E3021782200F0F2F9DE
:10443000F08780B2FEF746FB1198F130F18FFCF760
:1044400079FE5E216052FFF775FB431C18B2119D87
:10445000A8420D9800DC1846531C1AB2119DAA42BE
:104460000D9A00DC1A464B1C19B2119DA9420D99F8
:1044700000DC5EE65EE600F0A1FBA05B3C49086064
:1044800048608860E573474D334EFFF74FFB411E90
:10449000B174080602D125730621B17428468843F9
:1044A0007073EFF3108072B6E07B002802D1B07C0D
:1044B000FDF7B0FE62B6FDF78DFE2F4AD0680C996D
:1044C00040185168814200D9B5720D98E076A07706
:1044D000B07C400028494018316D4183FEF7D8FD7B
:1044E000FFF728FBFDF7FCFD0020E063E075207678
:1044F0001F4908604860886000F0FEFB012001024F
:104500001E48FCF70CFEBFF34F8F1748194908608F
:10451000BFF34F8F00BF00BF00BF00BFFAE7FDF73A
:10452000DFFD0020E063E0752076114908604860F7
:10453000886000F0E1FB012001021048FCF7EFFD6C
:10454000BFF34F8F08480B490860BFF34F8F00BF80
:1045500000BF00BF00BFFAE7C0000020EC0600204B
:104560002A030000282300000400FA05240000406C
:10457000342C01400CED00E084050020E80500200B
:10458000AC010020581B0000B0B5124C0549302585
:1045900020462A46FCF7AAFD20462946FEF7A4FD40
:1045A0006055B0BDEC060020B0B50A4C049D2572E4
:1045B000A3712271A1702070280AE071180A60713D
:1045C000100AE070080A607009212046FEF78CFD91
:1045D0006072B0BDB4050020F0B584B0824D697939
:1045E000002200293CD0A97A012902D10022AA7216
:1045F00036E0698B4C1C6C83298B4B1C2B83E98A1E
:10460000491CE982A4B2282C0DD3002169837A4A7F
:10461000515E7A4A4A43D10F920C5118C9B2032213
:1046200052028A181CE09BB2C82B0FD300212983A9
:104630006F4909886F4A4A43120C891A4908891838
:104640000909C9B2012292028A1809E089B2C8296F
:1046500006D30021E98201214902644A12785218E6
:1046600007235E02297A002905D000202872687A83
:10467000002804D106E0697A002900D18CE00020EE
:104680006872FF360120A8725F48007880000290AF
:104690005E490D1840226A60340A5D48005D019051
:1046A000830017469F43AF6031094C4074400F238D
:1046B0000393A3433401E4184B4804620198C400F7
:1046C00014407C40EC60C003009003980140504FC0
:1046D000785C0190810200980143FB5C03980640DE
:1046E000B85D039046011E431F4633460B433E48C8
:1046F0004362C80A1040604028618C0A144044405C
:104700006C61480A10406040A861019CA100114002
:104710004140E961E0001040484028629909114099
:1047200041406962580910404840A8621909114087
:104730004140E962039B9800104048402863D9003B
:104740001140414069633F20C04301407408144058
:104750004C40AC63730016406640EE6313407340F8
:104760002B640021294C029EA151B90011405940EF
:104770006964FB0013404B40AB6439011140594060
:10478000E96401407801104048402865F907490E66
:104790004140696504B0F0BD002A164600D071E7BB
:1047A00017490978002900D11648C10B16D1810B91
:1047B0000BD1410B0BD1010B0BD1C10A0BD1810ADB
:1047C0000BD1430A591E8B4108E0062306E005235E
:1047D00004E0042302E0032300E00223EB61D8405D
:1047E0005E02064350E7C0468004002029050020F1
:1047F00060050020AF470000380500207B14000052
:104800001B050020FFFF0000E9040020AC0700208A
:10481000D260000870B5049D884214DD2C46254600
:10482000904214DAAB4215D01646EA1854107218AA
:10483000521091420CD09042F1DD511C8842234627
:104840003246EBDC01E016461C46B04200DB2C464B
:10485000204670BD184670BD0120400502490A6817
:1048600082430A604861704700040140F0B581B09E
:10487000C04DC1486860EFF3108072B6BF48007841
:10488000E8602861686179249B4E9C4F3760A41EC4
:1048900014212046FCF74EFCC0B2FDF7BBFC6008BB
:1048A0000A3028600A20FEF725F9022CEED8FDF721
:1048B00017FC00202860B2490880B2480088686070
:1048C00062B601B0F0BDC046F0B583B00320FDF77D
:1048D000A1FC00213520AA4EA54A02910B4604E016
:1048E0005B1CA81C313D7E2D4CD205468348824975
:1048F0000860029830805019401E0778FF2FEFD0D3
:10490000505D00282DD00A219A4E3160F721414395
:104910007D204001091822480193FCF70BFC044656
:1049200020482146FCF706FC70609449097848430A
:104930009149FCF7FFFBF060306170610198C0B2F3
:10494000FE214143CE1918482146FCF7F3FB704382
:104950008B4E6421FCF7EEFB80B2FEF7CBF8002310
:104960000BE000248348C46004614461D8B2FE2196
:104970004143C819FEF7BEF823467D4AA81C313DC5
:104980007E2DB2D3FDF7ACFB00207A4A10607D4942
:1049900009885160308059485749086003B0F0BD1C
:1049A000C0D8A700003E4900A0860100B0B5714DF7
:1049B000714868602820286070480078E8602861A5
:1049C00068610220FDF726FC96242046FEF792F847
:1049D00049484A490160502028602046FEF78AF87D
:1049E000FDF77EFB00202860654908806548008847
:1049F0006860B0BDB0B55F4D5F4868603220286028
:104A00005E480078E860286168610220FDF702FCDA
:104A100096242046FEF76EF83748384901601E207C
:104A200028602046FEF766F8FDF75AFB0020286054
:104A300053490880534800886860B0BDB0B5EFF3B3
:104A4000108072B64B4D4C4868602B482B49016072
:104A50005020286049480078E86028616861032098
:104A6000FDF7D8FB64242046FEF744F84620286072
:104A70002046FEF73FF8282028602046FEF73AF847
:104A8000FDF72EFB002028603D4908803D48008846
:104A9000686062B6B0BDC046F0B581B0354D3648ED
:104AA0006860EFF3108072B6134E144F37603C20ED
:104AB000286032480078E860286168610120FDF7CD
:104AC000A9FB4B242046FEF715F85020286020460D
:104AD000FEF710F85A20286037602046FEF70AF8E3
:104AE000FDF7FEFA00202860254908802548008847
:104AF000686062B601B0F0BD00300040AAAA0000B4
:104B0000B0B5EFF3108072B630208449085C194DBF
:104B1000FF2802D0FFF7D8FE25E017486860174845
:104B20000078E860286168610320FDF773FB372097
:104B30002860C8242046FDF7DDFF0520FDF76AFB4D
:104B4000282028602046FDF7D5FF0620FDF762FBF0
:104B5000192028602046FDF7CDFFFDF7C1FA08486F
:104B600000210180296007480088686062B6B0BDF6
:104B7000EC060020282C0140CF070000E5050020AE
:104B80004E050020F200002010B50A4C6078022883
:104B900008D0012803D1FDF799FC0020607000F0D7
:104BA00013FA10BD0448808AFFF716FD00206070DC
:104BB00010BDC0460805002084050020B0B50321C3
:104BC0000A050920C00603689343012214051B1936
:104BD0000360930283628B0404689C439304E3188C
:104BE0000360530283620B0404689C431304E318BC
:104BF000036013028362094B1C68082525430424C3
:104C0000A5431D601C680225254395431D6089034B
:104C100003688B43D10359180160B0BD00040048FC
:104C2000F0B5012A23DB03231340042A01D2002418
:104C30000FE00F4C224000240D5D055505190E199B
:104C400077786F70B778AF70F678EE70241DA24257
:104C5000F2D1002B0BD0625C0255012B07D0621CF5
:104C6000555C8554022B02D0A21C515C8154F0BDCE
:104C7000FCFFFF7FB0B5BD4801680222114301600F
:104C8000016891430160BA480146083941220A602F
:104C90000A2101601349097881601349C160024605
:104CA0000C3A136801210B43136000224260B24B9F
:104CB0000E4CDC60044614349C600D4C24785C601F
:104CC0000C4C1C604B020446143C25681D432560B7
:104CD00003680B430360AA4B1A70203802680A432A
:104CE0000260B0BDA4010020FFFF0000E805002025
:104CF0003C0100208B090000024800214160016056
:104D00007047C0462404004080B50348C26C034885
:104D1000C02100F005F880BDC0000020EC06002096
:104D2000F0B503AF8BB06E46F41D193415467161B2
:104D3000B061C80F0B1801221946F2609143C91DDA
:104D4000072291436A46501A59108546F061316135
:104D5000FCF7E5F9706902285ADBB26935607460C6
:104D6000032031690840B060481E032801D20021A9
:104D700023E048005D490140716100231946D25C7F
:104D8000B069C01844782402A218F569EA52827802
:104D9000C4782402A218EC186280027945792D02A9
:104DA000AA18A2808279C07900028018E080B269D6
:104DB0000833091D70699842E1D1B368002B74680B
:104DC000356825D04900B069405CB2695218527804
:104DD00012021018F26971615052012B18D07069DB
:104DE000801CB1690A5CB1690B185B781B029A18C8
:104DF000F3691A52B169B068022809D00A4670698D
:104E0000001D095C1218527812025118F2691152F1
:104E10003069A06036480168C90708D00168C90731
:104E200005D00168C90702D00168C907F3D14168FC
:104E3000090606D52F490A680346083B1A604968E7
:104E40001960A905F3681DD1426802210A43426036
:104E5000856042684023134343600268D20708D04C
:104E60000268D20705D00268D20702D00268D207D2
:104E7000F3D10268920601D52022026042688A437B
:104E80004260F3680021616007E041689943416036
:104E90006168891C61602168491C21602168A268E1
:104EA00091421AD241681943416021684900F26970
:104EB000515A626851530168C90708D00168C9078F
:104EC00005D00168C90702D00168C907F3D101689C
:104ED0008906DAD520210160D7E7416880220A439C
:104EE0004260FE1F053EB546F0BDC046F8FFFF7F9D
:104EF0000C20024044010020B0B51C480168022289
:104F00001143016001689143016019480146083965
:104F100060220A60032101601649097881603D2101
:104F2000C16002460C3A136801210B431360124B17
:104F3000124ADA60024614329A60114A54781734E1
:104F40005C60104C1C604B020446143C25681D43F9
:104F5000256003680B430360CB03446A1C4344622F
:104F60001170203802680A430260B0BD1010024080
:104F700020040040F204002044000240AC0700205E
:104F8000E80400209B090000F0B50C490C680822D9
:104F9000144304239C430C60094C25680126B54347
:104FA00025606568074F2F403818606020683043DF
:104FB00020600868184390430860F0BD0038014045
:104FC0001C0002400000FFFFF0B587B0F04FB87C36
:104FD000002807D026217D5CEE4E707E002805D08B
:104FE0003E464DE14020EB49085A23E20391402020
:104FF0000490305A7D22D400E74949794B00069449
:1050000019190124002D18D081424AD2E24A927B1C
:105010007D7CAA425ED1059401240294F47300259C
:10502000F5863479002C00D1ADE0F573029B9A1A15
:10503000D94B9A73059C069D68E0814205943BD24A
:10504000D54B9B7B7C7CA34200D0AEE035463E46F0
:10505000287D441EA04142242C5BA4B2C82C059D8F
:1050600000D30546CC4FBC8C3F6DA74200D8054607
:10507000012D049F00D093E0C84800240461012062
:10508000C54DA872C01AA873FFF7E6FBC14A947217
:10509000D05B69794900069D491937461646059C3B
:1050A00085E0069DEA1A82421BD8591981425BD3DA
:1050B000002182425BD95BE0069DEA1A824200D958
:1050C00085E05919814200D2CAE00021824200D80D
:1050D000C9E0C9E0F27B002A069D17D0EA1A824295
:1050E000E3D90594797C01256C1AAB4EB77BA94EA8
:1050F000BC421DD1F5730025F5863479002C48D0CB
:10510000F573A54B9973A24F059C1BE000223271E9
:10511000A34A00922F3A2F23FFF77CFBF0860498D6
:10512000305A9D4949794B00EA1A8242BDD9D8E7E5
:10513000F17B0029964F059C04D0069D59198142A8
:10514000B6D211E0002131712F230093944BFFF769
:1051500061FBF0860498305A8F4949794B00069DCF
:10516000EA1A59198142A3D20121824200D80C4681
:10517000002C7ED10020F086F17B002979D001211E
:105180003171F07375E0059C069DEA1A82428CD954
:10519000A7E77F4F059C069D5919814288D2E3E716
:1051A000D0007C4AD05337461646059C069D7C4A63
:1051B00000922F3A2F23FFF72DFBF0860498305AE8
:1051C000754949794B00EA1A824200D879E7797C1F
:1051D00001235C1A704DAD7BAC4226D135463E466C
:1051E000287D441EA04142242C5BA4B2C82C059DFE
:1051F00000D30546684FBC8C3F6DA74200D80546DA
:10520000012D049F14D1644DA973AB72634800242F
:105210000461FFF721FB5F4B9C72D85B6979490001
:10522000069D6A1A37461E4608E0059C069D06E064
:105230005849069DCD53284637460E46059C2F21DA
:1052400000910021564BFFF7E5FAF0860498305A9A
:10525000514949794B00EA1A5919814200D334E780
:105260000121824200D80C46002C02D10020B072ED
:10527000F086707E002800D1DDE03E4603983D5C5C
:1052800040244448005B7D21CF0039462F31002D5A
:1052900014D0884241D940498A7B3746737C9A4270
:1052A00052D101233B4EF3730024F4863579002D4F
:1052B00000D1C0E0F4739A1A8A7349E088427BD91E
:1052C000354B997B727C91426FD1988C1D6D012278
:1052D00000238542104600D81846069342252D4BE0
:1052E0005D5BADB2C82D00D3069A1040294D2A7DD2
:1052F000D2B2531E9A410243012A53D127480025B6
:1053000005610120244A9072401A9073FFF7A4FAB5
:10531000214B20488572005B47E00146303989B255
:10532000B9421ED23746727C01239C1A1A498D7BE2
:10533000AC4221D1174DEB730023EB862C79002C66
:1053400079D0EB738A731BE0124EF27B002A72D184
:10535000002232714000BB4A8018097A401AF08658
:1053600069E000200B4AD086D17B0029374662D005
:1053700001211171D0735EE0064DEA7B002A5AD1FB
:1053800000222A71097A4000401A3138E88652E03A
:10539000EC06002008050020C00000208405002045
:1053A000FF07000000202853A74B4100A54A891899
:1053B0001A7A891AA54AD1860146303989B2B9428A
:1053C00032D2717C0122531A9F4FBD7BAB4225D153
:1053D000B88C3D6D00238542104600D818460693D0
:1053E00042259A4B5D5BADB2C82D00D3069A1040A2
:1053F000964D2A7DD2B2531E9A410243012A0BD107
:10540000B9730120B872924800250561FFF724FAAC
:105410008E488572005B01E000202853397A4200F3
:10542000511A3139894AD18637462F28874902D8FF
:1054300000208872C886844DE879844EB17C814210
:105440000AD9B87D002807D0FCF74AFEFFF704FA16
:105450006620B07400204AE0F87C002805D0F08E69
:105460001D2825D80021F18734E0707900283DD02F
:105470003078002867D0696CAB6CF08E00912F21DA
:10548000E94C2246FFF7C6F90146EA48FBF772FEEF
:10549000F97E4908FBF76EFE7085F08E2E285FD8E6
:1054A00000206865F087B066307D002824D023E1B5
:1054B0001E2801D11E200DE02821795C14224A43C8
:1054C000824207D9A02100911E212F23FFF7A2F9C4
:1054D000F087F08E28217A5C14215143814207D84D
:1054E000D14A0092A023FFF795F900E0F08EF087F3
:1054F000307D002800D0FFE0F07D002800D1FBE0E7
:10550000F97C5024204648432F30F28F904200D936
:1055100087E0F07C00286CD1FCF7E2FDA87A002837
:1055200062D1F07C00285DD1A87CA97B012928D11B
:10553000401CA874C1B2072902D301203073A8749B
:105540000121014027E0B06EBB49FBF713FE81B299
:10555000302900D830210004C00E0DD0B2490BE034
:10556000B06EB549FBF706FE81B2302900D8302174
:105570000004C00E00D02146F187307D0028BBD04A
:10558000BAE0401EA874010603D101203073062042
:10559000A874012181436973EFF3108072B6F07B28
:1055A000002802D1A87CFCF735FE62B6FCF712FE9B
:1055B0007D2081009D48C268511842688A4201D905
:1055C0000121A9720021F176B177296D9A4A2A65E5
:1055D000AA7C9B4D994B1D60924D5200101841833F
:1055E0000120F074FDF766FC0120F074288D7086B0
:1055F000F97CAB8DF08F8C4A002905D011462F39EC
:1056000000912833892103E011462F3900912F2181
:10561000FFF700F9B0862620385C002801D1002071
:10562000F073F87C60432F30F18F884261D9F07AB3
:1056300005281AD87844007940008744180B140EC6
:10564000110BC046FFF7FFFFC00000200805002037
:1056500084050020FFF7CEF907E0FFF707F904E023
:10566000FFF71AFA01E0FFF7A1F90020F072387D88
:10567000002826D0F07C002871D0A87C3C21414332
:10568000288B421810463C3803B2FF2168318B4208
:1056900001DD6C4810184E22B0520246EF3213B2B0
:1056A0008B4201DD0246793A5223F25202467732AA
:1056B00013B28B4214DC10463053F87C012814D00E
:1056C00015E00020B086F17C002969D157490861B6
:1056D0000120A872387F00285DD0FDF7A3FC5FE0B1
:1056E000F1383053F87C012801D1012030750020B9
:1056F000B086F07B002801D007B0F0BDF08F2E28D7
:1057000012D9797F1E22CA40B48E48490969914254
:105710000BD2298D8C4201D2B1860C46698D8C4208
:1057200003D9B1860C4600E0B48EA98E8C4201D913
:10573000B1860C46B179002905D02221695E8C42E0
:1057400001DD8CB2B4863028D6D3F06E0128D3DBCD
:105750003949FBF7EFFC2018B08607B0F0BD33489D
:10576000002101610122AA72B175387F00280FD093
:10577000012882D1F87C002800D07EE72920385CFF
:10578000C8214143B1840A2845D3FDF74BFC74E797
:10579000FCF7A6FC71E7F07B002801D1FCF7A0FC28
:1057A0002620395CF07B0029A4D00028A2D0402517
:1057B000715B7D20C400707E002808D12046FDF773
:1057C0006FFC0019B084717E002917D0715B084608
:1057D000303880B2A042134A05D2107A4900081A24
:1057E0003138B0840AE02F34A14206D9480010496C
:1057F0004018117A401AB08400E0B08C0A4931395F
:1058000080B2884203D9FDF70DFC064D71E7FFF722
:10581000D5F9044D6DE70692FFF7D0F90698F073BD
:105820002BE7C046C0000020FF07000084050020D1
:10583000FFF7FFFF008793031027000024000040BC
:10584000881300005CFEFFFF0320000203490A6882
:105850008243012000021018086070470C040048C1
:10586000014908607047C046342C01400149086076
:105870007047C046382C0140014908607047C04657
:105880003C2C01400B2800D30B204000014908703C
:105890007047C046E5050020F0B591B000240F9494
:1058A0000E940D940C940B940A9409940894079404
:1058B0000694059404940394012082030292034603
:1058C00000903D484168114341604168114010918A
:1058D0001099990402680A43026000680840109019
:1058E000109808940793069402200490402603968B
:1058F00003250595314803A9FBF730FE304F386882
:1059000030490140103139602803396881433960DA
:1059100038682021884338603868B0433860386878
:105920008021019108433860280239688143396039
:10593000A8023968814339600F940E940C940B943B
:105940000A94E1204002099008260D961E4D2C462F
:10595000083C09A92046FCF791F8009B98022968A9
:10596000814329600920C002291F0A6882430A6016
:1059700028682A21884328602068184320600298FC
:105980001030396801400C201029024600D0324600
:105990000E4BD351102900D0064628462030F05136
:1059A00078680B49014031317960286801990843D2
:1059B000286011B0F0BDC046141002400004004839
:1059C0001C000240EFBFFFFF08380140B405002073
:1059D0000000FFFFF0B583B0FD4DA88E4226A8530E
:1059E0005427E85B401CE853E88D401CE885E88CB0
:1059F000401CE884288D401C2885E87D002848D17B
:105A0000687A002845D1287E002842D0E88E0028F8
:105A100003D05620002129523BE05620295A491C28
:105A2000295289B2EB4A914233D3A98F1F2920D33F
:105A300002960120E8752420E749085C01281CD162
:105A400058202C5AB92041002046FBF773FB68729E
:105A50006008B92813D30024E14EFEF7EFFF64205D
:105A6000FDF748F8DD480660641C687A8442F4D388
:105A700005E00021295229760BE0FEF7DFFFA87E22
:105A8000697EC9B20143029E03D126200021D24A79
:105A90001154D14CE17F002910D05A202A5A521CAF
:105AA0002A5292B2CF4BDB78C91814234B43143BD4
:105AB000934203D2002129520120A873287D002897
:105AC00000D07FE1C748807A002840D0E87C0028D9
:105AD0003DD0FEF7C1FEFDF7E9FAC2494A7B002A34
:105AE0000DD000280DD0A87D401CA875CB7BC0B27E
:105AF000984214D8E87E002829D1A87F16E0002813
:105B000006D0A87F401CA877EB7E002B1FD10BE0AE
:105B1000A87D401CA875CB7BC0B298420BD9002051
:105B2000A877EB7E002B12D1002A08D0097CC0B2E6
:105B3000884208D80BE0E87E002808D1A87F497C7D
:105B4000C0B2884203D90120E87600F01BFA288D04
:105B5000152800D2BCE00020009028850120687341
:105B6000E97CA87900280296019140D000293ED016
:105B70003020285E2C21615CC722D2434A43101892
:105B8000994908608A69831A8E68CA680C695A4301
:105B90004A618861464333190E6AB34200DB3346DB
:105BA0007642B34200DC33460B61D2184B6858434F
:105BB00010184A6A9042F04C00DB10465242904264
:105BC000029E00DC1046C8618849FBF7D3FA85497C
:105BD0004A8C101803B28A8D934200DB024610B241
:105BE0007D221201904200DB104648840199607FBB
:105BF000002832D0002930D07A48C18A006D411A7D
:105C000079488162026C8B1A046B426B866B5A4333
:105C1000C26301644C43A319866CB34200DB334674
:105C20007642B34200DC33468363D218C36A5943D9
:105C30005118C26C914200DB114652429142029EC1
:105C400000DC11464164E86E08186949884200DBAF
:105C50000846C1178843E86601996879002837D05B
:105C6000002935D0688D63494A69121A5D4842653A
:105C7000C36ED41AC66D036E416E63438366C266FB
:105C800056437418466FB44200DB34467642B44241
:105C900000DC344644661919836D5A438A18836FB1
:105CA0009A4200DB1A465B429A42029E00DC1A4688
:105CB0000267A96E5218504B9A4200DB1A46D11760
:105CC0008A43AA66F1490969632901D800994166A6
:105CD000E85B697F884209D90020E8537D20800075
:105CE000EA494A68824204D8022203E06C8EE64FF9
:105CF00020E00122E44F688E96283B4600D3BB1873
:105D000009699629394600D3194609787972AA5B40
:105D1000131A8B42144606DC821A8A4209DCE87D9B
:105D200000280BD119E04418AC53A2B2821A8A425F
:105D3000F5DD441AAC53E87D00280ED0E97C00293B
:105D40000BD0E98F302908D3A0B23F8E78437D2154
:105D50000901FBF7EFF9401C2BE0E97B002908D093
:105D60003F8EA88C78437D210901FBF7E3F9381AAF
:105D70001FE0002816D0C748007F022812D1022059
:105D8000FCF748FAC348007B3F8E78437D21090128
:105D9000FBF7D0F901460A2048432D305C216852B8
:105DA000AC5B08E0A0B23F8E78437D210901FBF790
:105DB000C1F95C21685211490F6080B28860C860E7
:105DC0006C8608614620295A491C295203B0F0BD4F
:105DD00008050020214E0000EC06002000300040A5
:105DE000AAAA0000C00000204C010020F0D8FFFF4C
:105DF00060E3160084050020F05838012C2C014087
:105E000070B551480078514C217800290BD00028FA
:105E100009D050480078002810D0FEF72BFF5848D2
:105E20000221017070BD4A49097801290CD000296E
:105E300024D1FCF715FFFEF71DFF70BDFFF75CF8DE
:105E40004F480121017070BD00280CD041480078F6
:105E5000002814D040480088FEF7BEFBFCF736FB54
:105E6000FEF708FF70BD3D4D287801280AD03C4858
:105E7000007801280ED0207800281DD070BDFFF7D3
:105E80003BF870BDFCF722FBFEF7F4FE34480078C7
:105E90000128F0D1FDF720F9002803D03148032173
:105EA000017004E02F4802210170FCF731FDFEF77C
:105EB000E1FE20780028E1D12B490A882B4C287874
:105EC000002817D06079072814D8062A12D3431C5B
:105ED000637127480568C06F401B80B2656940192F
:105EE0006061082B06D1C309C008C51AA581C01876
:105EF0001C4B98801F4D2888002805D16378002B03
:105F000002D1501C088070BD624AD279002AB5D1F6
:105F100000260E8019498842B0D36189FDF7C0F888
:105F2000322801D82078461C2670F0B2332807D3D7
:105F3000E078002804D1FEF799FC012000022080BF
:105F40002888608170BDC046180500201F0500200C
:105F500020050020E80400209805002021050020ED
:105F6000220500203C01002044050020EC04002014
:105F7000E80500203E050020EC060020DD050000BD
:105F800009050020F0B581B03D4801684C223D4E26
:105F9000B152002404603C4D2A6D0323534389B25F
:105FA0005918CA088908337F4B439B09D21A4427E2
:105FB000F2532965738791B2344F3A69052A11D299
:105FC000006833480160A87CA97B012917D1401CD7
:105FD000A874C1B2072902D301203073A87401212B
:105FE000014016E002688A42EBD202688A42E8D297
:105FF00002688A42E5D202688A42F3D3E1E7401E92
:10600000A874010603D1012030730620A874012171
:1060100081436973EFF3108072B6F07B002802D1E0
:10602000A87CFCF7F7F862B6FCF7D4F87D20800076
:10603000F96808187968814201D90120A872F476BC
:10604000B477B4753869411C3961A87C4000C21925
:10605000286D508326220F4B9A5CD2B25B7F13438C
:1060600005D0142909D30C49884203D305E0F96807
:10607000884202D2AC72FCF71DFF01B0F0BDC046F1
:106080002400004008050020C000002084050020F6
:106090002C200040EC060020D107000002E008C8D8
:1060A000121F08C1002AFAD170477047002001E092
:1060B00001C1121F002AFBD1704700000000000040
:1060C00000000102030406070809000000000102A5
:1060D0000304191B12131D1516171A090A0B1E0D9E
:1060E0000E0F000008610008C0000020C00300007F
:1060F000F4110008F0630008800400202808000064
:10610000AC6000080000000010140206101E2D6490
:10611000010A010201050501010202020116D00770
:106120002823B4180A4C046C07DC054A01D0061277
:106130006E127812C81A2D021008CF07CF07D007A9
:106140001412461A901A1A64122123102733E803F6
:10615000127C6408D430720A02136429302350C3BD
:1061600012202B204E08400923016745AB89EFCD53
:106170006390013950F123204E4BA08621592711FD
:106180000A1932601113127A121C3401400832FAD3
:1061900012B412B712BA12BD12C112C412C712CA77
:1061A00012CD12D012D312D612D912DC12E012E3A1
:1061B00012E612E912EC12EF12F212F51AF7321A85
:1061C000FD6718660301060109010B010E011101AB
:1061D0001301160119011B011E01200123012501D4
:1061E00028012A012C012F01310133013501380129
:1061F0003A013C013E014001420144014601470190
:1062000049014B014D014E0150015101530154010F
:106210005601570158015A015B015C015D015E01A5
:106220005F0160016101620163021C640165021A81
:1062300066023A6702FA680249182922292A3A6452
:10624000361A62401A60481A5E501A5C581A5A6030
:106250001A57681A54701A51781A4E801A4B881AB5
:1062600047901A44981A40A01A3CA81A38B01A331A
:10627000B81A2FC01A2AC81A25D01A20D81A1BE01B
:106280001A16E81A11F01A0BF8150601030113018A
:10629000FD12FA12F712F512F212EF12EC12E912D5
:1062A000E612E312E012DC12D912D612D312D01287
:1062B000CD12CA12C712C412C112BD12BA12B7123D
:1062C000B412B112AE12AB12A712A412A1129E12F6
:1062D0009B129812951292128F128C1288128512AC
:1062E00082127F127C1279127612731271126E1260
:1062F0006B126812651262125F125D125A12571207
:10630000551252124F124D124A12481245124312A0
:1063100040123E123C12391237123512331230122B
:106320002E122C122A1228122612241222122112A4
:106330001F121D121B121A12181217121512141204
:106340001212111210120E120D120C120B120A124E
:10635000091208120712061A050212041A03021A79
:10636000020219D91902011249182922292A3A04CC
:10637000361A06401A08481A0A501A0C581A0E60A3
:106380001A11681A14701A17781A1A801A1D881AA6
:1063900021901A24981A28A01A2CA81A30B01A355D
:1063A000B81A39C01A3EC81A43D01A48D81A4DE054
:1063B0001A52E81A57F01A5DF81262126512681242
:1063C0006B126E1271127312761279127C127F1296
:1063D0008212851288128C128F12921295129812C4
:1063E0009B129E12A112A412A712AB12AE52B100C0
:020000040800F2
:107BE000414D33325245465F46303531000000008A
:107BF0000000000000000000000000000000000085
:04000005080010BD22
:00000001FF
